{
  "contractName": "NBAGame",
  "abi": [
    {
      "constant": true,
      "inputs": [
        {
          "name": "",
          "type": "address"
        }
      ],
      "name": "playerInfo",
      "outputs": [
        {
          "name": "bet",
          "type": "uint256"
        },
        {
          "name": "betTeam",
          "type": "bytes32"
        }
      ],
      "payable": false,
      "stateMutability": "view",
      "type": "function"
    },
    {
      "constant": true,
      "inputs": [],
      "name": "betsT2",
      "outputs": [
        {
          "name": "",
          "type": "uint256"
        }
      ],
      "payable": false,
      "stateMutability": "view",
      "type": "function"
    },
    {
      "constant": true,
      "inputs": [],
      "name": "owner",
      "outputs": [
        {
          "name": "",
          "type": "address"
        }
      ],
      "payable": false,
      "stateMutability": "view",
      "type": "function"
    },
    {
      "constant": true,
      "inputs": [],
      "name": "minBet",
      "outputs": [
        {
          "name": "",
          "type": "uint256"
        }
      ],
      "payable": false,
      "stateMutability": "view",
      "type": "function"
    },
    {
      "constant": true,
      "inputs": [],
      "name": "betsT1",
      "outputs": [
        {
          "name": "",
          "type": "uint256"
        }
      ],
      "payable": false,
      "stateMutability": "view",
      "type": "function"
    },
    {
      "constant": true,
      "inputs": [
        {
          "name": "",
          "type": "uint256"
        }
      ],
      "name": "players",
      "outputs": [
        {
          "name": "",
          "type": "address"
        }
      ],
      "payable": false,
      "stateMutability": "view",
      "type": "function"
    },
    {
      "inputs": [],
      "payable": true,
      "stateMutability": "payable",
      "type": "constructor"
    },
    {
      "payable": true,
      "stateMutability": "payable",
      "type": "fallback"
    },
    {
      "constant": false,
      "inputs": [],
      "name": "kill",
      "outputs": [],
      "payable": true,
      "stateMutability": "payable",
      "type": "function"
    },
    {
      "constant": false,
      "inputs": [
        {
          "name": "player",
          "type": "address"
        }
      ],
      "name": "checkPlayerExist",
      "outputs": [
        {
          "name": "",
          "type": "bool"
        }
      ],
      "payable": false,
      "stateMutability": "nonpayable",
      "type": "function"
    },
    {
      "constant": false,
      "inputs": [
        {
          "name": "n1",
          "type": "bytes32"
        },
        {
          "name": "n2",
          "type": "bytes32"
        }
      ],
      "name": "setDataName",
      "outputs": [],
      "payable": false,
      "stateMutability": "nonpayable",
      "type": "function"
    },
    {
      "constant": false,
      "inputs": [],
      "name": "getDataName",
      "outputs": [
        {
          "name": "n1",
          "type": "bytes32"
        },
        {
          "name": "n2",
          "type": "bytes32"
        }
      ],
      "payable": false,
      "stateMutability": "nonpayable",
      "type": "function"
    },
    {
      "constant": false,
      "inputs": [
        {
          "name": "o1",
          "type": "uint256"
        },
        {
          "name": "o2",
          "type": "uint256"
        }
      ],
      "name": "setDataOdds",
      "outputs": [],
      "payable": false,
      "stateMutability": "nonpayable",
      "type": "function"
    },
    {
      "constant": false,
      "inputs": [],
      "name": "getDataOdds",
      "outputs": [
        {
          "name": "t1",
          "type": "uint256"
        },
        {
          "name": "t2",
          "type": "uint256"
        }
      ],
      "payable": false,
      "stateMutability": "nonpayable",
      "type": "function"
    },
    {
      "constant": false,
      "inputs": [
        {
          "name": "s1",
          "type": "uint256"
        },
        {
          "name": "s2",
          "type": "uint256"
        }
      ],
      "name": "setDataScores",
      "outputs": [],
      "payable": false,
      "stateMutability": "nonpayable",
      "type": "function"
    },
    {
      "constant": false,
      "inputs": [],
      "name": "getDataScores",
      "outputs": [
        {
          "name": "a",
          "type": "uint256"
        },
        {
          "name": "b",
          "type": "uint256"
        }
      ],
      "payable": false,
      "stateMutability": "nonpayable",
      "type": "function"
    },
    {
      "constant": false,
      "inputs": [],
      "name": "gameStart",
      "outputs": [],
      "payable": false,
      "stateMutability": "nonpayable",
      "type": "function"
    },
    {
      "constant": false,
      "inputs": [
        {
          "name": "team",
          "type": "bytes32"
        }
      ],
      "name": "bet",
      "outputs": [],
      "payable": true,
      "stateMutability": "payable",
      "type": "function"
    },
    {
      "constant": false,
      "inputs": [],
      "name": "getResult",
      "outputs": [],
      "payable": true,
      "stateMutability": "payable",
      "type": "function"
    },
    {
      "constant": false,
      "inputs": [
        {
          "name": "addr",
          "type": "address"
        },
        {
          "name": "amount",
          "type": "uint256"
        }
      ],
      "name": "payBalance",
      "outputs": [],
      "payable": true,
      "stateMutability": "payable",
      "type": "function"
    }
  ],
  "bytecode": "0x6080604052336000806101000a81548173ffffffffffffffffffffffffffffffffffffffff021916908373ffffffffffffffffffffffffffffffffffffffff160217905550655af3107a400060018190555060008060146101000a81548160ff021916908360ff16021790555060008060156101000a81548160ff021916908360ff16021790555060006006600060028110151561009957fe5b60030201600001819055506000600660006002811015156100b657fe5b60030201600101819055506000600660006002811015156100d357fe5b60030201600201819055506000600660016002811015156100f057fe5b600302016000018190555060006006600160028110151561010d57fe5b600302016001018190555060006006600160028110151561012a57fe5b6003020160020181905550611a06806101446000396000f3fe6080604052600436106100fc576000357c0100000000000000000000000000000000000000000000000000000000900463ffffffff168063177413da146100fe5780633218b99d1461012c57806341c0e1b51461014357806349a53dd21461014d5780634b114691146101b657806383152d6d1461022257806388eab915146102545780638da5cb5b1461027f5780639619367d146102d6578063a1f86ef614610301578063b129a5c414610333578063cee95cd71461035e578063de292789146103a3578063e547385c146103ad578063e83260d7146103f2578063eed63f6c14610437578063f71d96cb14610485578063f9ecaf8f14610500575b005b61012a6004803603602081101561011457600080fd5b8101908080359060200190929190505050610532565b005b34801561013857600080fd5b50610141610979565b005b61014b610c9b565b005b34801561015957600080fd5b5061019c6004803603602081101561017057600080fd5b81019080803573ffffffffffffffffffffffffffffffffffffffff169060200190929190505050610d0b565b604051808215151515815260200191505060405180910390f35b3480156101c257600080fd5b50610205600480360360208110156101d957600080fd5b81019080803573ffffffffffffffffffffffffffffffffffffffff169060200190929190505050610daf565b604051808381526020018281526020019250505060405180910390f35b34801561022e57600080fd5b50610237610dd3565b604051808381526020018281526020019250505060405180910390f35b34801561026057600080fd5b50610269610e0e565b6040518082815260200191505060405180910390f35b34801561028b57600080fd5b50610294610e14565b604051808273ffffffffffffffffffffffffffffffffffffffff1673ffffffffffffffffffffffffffffffffffffffff16815260200191505060405180910390f35b3480156102e257600080fd5b506102eb610e39565b6040518082815260200191505060405180910390f35b34801561030d57600080fd5b50610316610e3f565b604051808381526020018281526020019250505060405180910390f35b34801561033f57600080fd5b50610348610e7a565b6040518082815260200191505060405180910390f35b34801561036a57600080fd5b506103a16004803603604081101561038157600080fd5b810190808035906020019092919080359060200190929190505050610e80565b005b6103ab611009565b005b3480156103b957600080fd5b506103f0600480360360408110156103d057600080fd5b8101908080359060200190929190803590602001909291905050506114b8565b005b3480156103fe57600080fd5b506104356004803603604081101561041557600080fd5b810190808035906020019092919080359060200190929190505050611641565b005b6104836004803603604081101561044d57600080fd5b81019080803573ffffffffffffffffffffffffffffffffffffffff169060200190929190803590602001909291905050506117e7565b005b34801561049157600080fd5b506104be600480360360208110156104a857600080fd5b81019080803590602001909291905050506118f6565b604051808273ffffffffffffffffffffffffffffffffffffffff1673ffffffffffffffffffffffffffffffffffffffff16815260200191505060405180910390f35b34801561050c57600080fd5b50610515611934565b604051808381526020018281526020019250505060405180910390f35b60006006600060028110151561054457fe5b6003020160000154141515156105c2576040517f08c379a00000000000000000000000000000000000000000000000000000000081526004018080602001828103825260178152602001807f4572726f722c205465616d4e616d65206e6f742073657400000000000000000081525060200191505060405180910390fd5b6000600660016002811015156105d457fe5b600302016000015414151515610652576040517f08c379a00000000000000000000000000000000000000000000000000000000081526004018080602001828103825260178152602001807f4572726f722c205465616d4e616d65206e6f742073657400000000000000000081525060200191505060405180910390fd5b6006600060028110151561066257fe5b600302016000015481148061068d57506006600160028110151561068257fe5b600302016000015481145b1515610701576040517f08c379a00000000000000000000000000000000000000000000000000000000081526004018080602001828103825260198152602001807f4572726f722c20756e7265636f676e697a6564207465616d2e0000000000000081525060200191505060405180910390fd5b61070a33610d0b565b15151561077f576040517f08c379a00000000000000000000000000000000000000000000000000000000081526004018080602001828103825260198152602001807f4572726f722c20706c6179657220616c7265616479206265740000000000000081525060200191505060405180910390fd5b60015434101515156107f9576040517f08c379a00000000000000000000000000000000000000000000000000000000081526004018080602001828103825260138152602001807f4572726f722c2062657420746f6f206c6573730000000000000000000000000081525060200191505060405180910390fd5b60008060149054906101000a900460ff1660ff16141515610882576040517f08c379a00000000000000000000000000000000000000000000000000000000081526004018080602001828103825260148152602001807f4572726f722c2067616d6520737461727465642e00000000000000000000000081525060200191505060405180910390fd5b34600560003373ffffffffffffffffffffffffffffffffffffffff1673ffffffffffffffffffffffffffffffffffffffff1681526020019081526020016000206000018190555080600560003373ffffffffffffffffffffffffffffffffffffffff1673ffffffffffffffffffffffffffffffffffffffff1681526020019081526020016000206001018190555060043390806001815401808255809150509060018203906000526020600020016000909192909190916101000a81548173ffffffffffffffffffffffffffffffffffffffff021916908373ffffffffffffffffffffffffffffffffffffffff1602179055505050565b6000809054906101000a900473ffffffffffffffffffffffffffffffffffffffff1673ffffffffffffffffffffffffffffffffffffffff163373ffffffffffffffffffffffffffffffffffffffff16141515610a3d576040517f08c379a00000000000000000000000000000000000000000000000000000000081526004018080602001828103825260118152602001807f4572726f722c206e6f742061646d696e2e00000000000000000000000000000081525060200191505060405180910390fd5b600060066000600281101515610a4f57fe5b600302016000015414151515610acd576040517f08c379a00000000000000000000000000000000000000000000000000000000081526004018080602001828103825260178152602001807f4572726f722c205465616d4e616d65206e6f742073657400000000000000000081525060200191505060405180910390fd5b600060066001600281101515610adf57fe5b600302016000015414151515610b5d576040517f08c379a00000000000000000000000000000000000000000000000000000000081526004018080602001828103825260178152602001807f4572726f722c205465616d4e616d65206e6f742073657400000000000000000081525060200191505060405180910390fd5b600060066000600281101515610b6f57fe5b600302016001015414151515610bed576040517f08c379a00000000000000000000000000000000000000000000000000000000081526004018080602001828103825260138152602001807f4572726f722c206f646473206e6f74207365740000000000000000000000000081525060200191505060405180910390fd5b600060066001600281101515610bff57fe5b600302016001015414151515610c7d576040517f08c379a00000000000000000000000000000000000000000000000000000000081526004018080602001828103825260138152602001807f4572726f722c206f646473206e6f74207365740000000000000000000000000081525060200191505060405180910390fd5b6001600060146101000a81548160ff021916908360ff160217905550565b6000809054906101000a900473ffffffffffffffffffffffffffffffffffffffff1673ffffffffffffffffffffffffffffffffffffffff163373ffffffffffffffffffffffffffffffffffffffff161415610d09573373ffffffffffffffffffffffffffffffffffffffff16ff5b565b600080600090505b600480549050811015610da4578273ffffffffffffffffffffffffffffffffffffffff16600482815481101515610d4657fe5b9060005260206000200160009054906101000a900473ffffffffffffffffffffffffffffffffffffffff1673ffffffffffffffffffffffffffffffffffffffff161415610d97576001915050610daa565b8080600101915050610d13565b50600090505b919050565b60056020528060005260406000206000915090508060000154908060010154905082565b60008060066000600281101515610de657fe5b600302016001015460066001600281101515610dfe57fe5b6003020160010154915091509091565b60035481565b6000809054906101000a900473ffffffffffffffffffffffffffffffffffffffff1681565b60015481565b60008060066000600281101515610e5257fe5b600302016000015460066001600281101515610e6a57fe5b6003020160000154915091509091565b60025481565b6000809054906101000a900473ffffffffffffffffffffffffffffffffffffffff1673ffffffffffffffffffffffffffffffffffffffff163373ffffffffffffffffffffffffffffffffffffffff16141515610f44576040517f08c379a00000000000000000000000000000000000000000000000000000000081526004018080602001828103825260118152602001807f4572726f722c206e6f742061646d696e2e00000000000000000000000000000081525060200191505060405180910390fd5b60008060149054906101000a900460ff1660ff16141515610fcd576040517f08c379a00000000000000000000000000000000000000000000000000000000081526004018080602001828103825260148152602001807f4572726f722c2067616d6520737461727465642e00000000000000000000000081525060200191505060405180910390fd5b8160066000600281101515610fde57fe5b60030201600101819055508060066001600281101515610ffa57fe5b60030201600101819055505050565b6000809054906101000a900473ffffffffffffffffffffffffffffffffffffffff1673ffffffffffffffffffffffffffffffffffffffff163373ffffffffffffffffffffffffffffffffffffffff161415156110cd576040517f08c379a00000000000000000000000000000000000000000000000000000000081526004018080602001828103825260118152602001807f4572726f722c206e6f742061646d696e2e00000000000000000000000000000081525060200191505060405180910390fd5b6001600060159054906101000a900460ff1660ff16141515611157576040517f08c379a00000000000000000000000000000000000000000000000000000000081526004018080602001828103825260148152602001807f4572726f722c2067616d65206e6f7420656e642e00000000000000000000000081525060200191505060405180910390fd5b600061116161196f565b61116961196f565b60006006600160028110151561117b57fe5b60030201600201546006600060028110151561119357fe5b6003020160020154111561122657600660006002811015156111b157fe5b600302016060604051908101604052908160008201548152602001600182015481526020016002820154815250509250600660016002811015156111f157fe5b6003020160606040519081016040529081600082015481526020016001820154815260200160028201548152505091506112a7565b6006600160028110151561123657fe5b6003020160606040519081016040529081600082015481526020016001820154815260200160028201548152505092506006600060028110151561127657fe5b6003020160606040519081016040529081600082015481526020016001820154815260200160028201548152505091505b60005b600480549050811015611445576004818154811015156112c657fe5b9060005260206000200160009054906101000a900473ffffffffffffffffffffffffffffffffffffffff1694508260000151600560008773ffffffffffffffffffffffffffffffffffffffff1673ffffffffffffffffffffffffffffffffffffffff16815260200190815260200160002060010154141561134657611438565b6103e88460200151600560008873ffffffffffffffffffffffffffffffffffffffff1673ffffffffffffffffffffffffffffffffffffffff168152602001908152602001600020600001540281151561139b57fe5b049150600560008673ffffffffffffffffffffffffffffffffffffffff1673ffffffffffffffffffffffffffffffffffffffff168152602001908152602001600020600080820160009055600182016000905550508473ffffffffffffffffffffffffffffffffffffffff166108fc839081150290604051600060405180830381858888f19350505050158015611436573d6000803e3d6000fd5b505b80806001019150506112aa565b50600460006114549190611994565b61145c61196f565b925061146661196f565b9150600060028190555060006003819055506000905060008060146101000a81548160ff021916908360ff16021790555060008060156101000a81548160ff021916908360ff16021790555050505050565b6000809054906101000a900473ffffffffffffffffffffffffffffffffffffffff1673ffffffffffffffffffffffffffffffffffffffff163373ffffffffffffffffffffffffffffffffffffffff1614151561157c576040517f08c379a00000000000000000000000000000000000000000000000000000000081526004018080602001828103825260118152602001807f4572726f722c206e6f742061646d696e2e00000000000000000000000000000081525060200191505060405180910390fd5b60008060149054906101000a900460ff1660ff16141515611605576040517f08c379a00000000000000000000000000000000000000000000000000000000081526004018080602001828103825260148152602001807f4572726f722c2067616d6520737461727465642e00000000000000000000000081525060200191505060405180910390fd5b816006600060028110151561161657fe5b6003020160000181905550806006600160028110151561163257fe5b60030201600001819055505050565b6000809054906101000a900473ffffffffffffffffffffffffffffffffffffffff1673ffffffffffffffffffffffffffffffffffffffff163373ffffffffffffffffffffffffffffffffffffffff16141515611705576040517f08c379a00000000000000000000000000000000000000000000000000000000081526004018080602001828103825260118152602001807f4572726f722c206e6f742061646d696e2e00000000000000000000000000000081525060200191505060405180910390fd5b6001600060149054906101000a900460ff1660ff1614151561178f576040517f08c379a00000000000000000000000000000000000000000000000000000000081526004018080602001828103825260168152602001807f4572726f722c2067616d65206e6f742073746172742e0000000000000000000081525060200191505060405180910390fd5b6001600060156101000a81548160ff021916908360ff16021790555081600660006002811015156117bc57fe5b600302016002018190555080600660016002811015156117d857fe5b60030201600201819055505050565b6000809054906101000a900473ffffffffffffffffffffffffffffffffffffffff1673ffffffffffffffffffffffffffffffffffffffff163373ffffffffffffffffffffffffffffffffffffffff161415156118ab576040517f08c379a00000000000000000000000000000000000000000000000000000000081526004018080602001828103825260118152602001807f4572726f722c206e6f742061646d696e2e00000000000000000000000000000081525060200191505060405180910390fd5b8173ffffffffffffffffffffffffffffffffffffffff166108fc829081150290604051600060405180830381858888f193505050501580156118f1573d6000803e3d6000fd5b505050565b60048181548110151561190557fe5b906000526020600020016000915054906101000a900473ffffffffffffffffffffffffffffffffffffffff1681565b6000806006600060028110151561194757fe5b60030201600201546006600160028110151561195f57fe5b6003020160020154915091509091565b6060604051908101604052806000801916815260200160008152602001600081525090565b50805460008255906000526020600020908101906119b291906119b5565b50565b6119d791905b808211156119d35760008160009055506001016119bb565b5090565b9056fea165627a7a7230582055e3c4fafa953071e757830f4c878adda19d71ad2539760b32888957be5f26780029",
  "source": "pragma solidity ^0.5.0;\ncontract NBAGame {\n    address public owner;\n    uint8 start;\n    uint8 end;\n    uint256 public minBet;\n    uint256 public betsT1; //total bets on Team 1\n    uint256 public betsT2; //total bets on Team 2\n    \n    address payable[] public players;\n    \n    struct Player {\n        uint256 bet; //amount of bets\n        bytes32 betTeam; //which team bets\n    }\n\n    struct Team {\n        bytes32 name;\n        uint256 odds;\n        uint256 score;\n    }\n    // odds = realodds * 1000,\n    // ex: \n    //    Rocket: Thunder = 1.218: 2.311\n    //    t1Odds = 1218, t2Odds = 2311\n\n    mapping(address => Player) public playerInfo;\n    Team [2] teams;\n\n    //fallback function\n    function () external payable {}\n\n    constructor() public payable {\n        owner = msg.sender;\n        minBet = 100000000000000;\n        start = 0;\n        end = 0;\n        teams[0].name = \"\";\n        teams[0].odds = 0;\n        teams[0].score = 0;\n        teams[1].name = \"\";\n        teams[1].odds = 0;\n        teams[1].score = 0;\n    }\n\n    function kill() public payable {\n        if (msg.sender == owner) selfdestruct(msg.sender);\n    }\n\n    function checkPlayerExist(address player) public returns(bool) {\n        for (uint256 i = 0;i < players.length; i++) {\n            if (players[i] == player) return true;\n        }\n        return false;\n    }\n\n    function setDataName(bytes32 n1, bytes32 n2) public {\n        require(msg.sender == owner, \"Error, not admin.\");\n        require(start == 0, \"Error, game started.\");\n        teams[0].name = n1;\n        teams[1].name = n2;\n    }\n\n    function getDataName() public returns(bytes32 n1, bytes32 n2) {\n        return (teams[0].name, teams[1].name);\n    }\n\n    function setDataOdds(uint256 o1, uint256 o2) public {\n        require(msg.sender == owner, \"Error, not admin.\");\n        require(start == 0, \"Error, game started.\");\n        teams[0].odds = o1;\n        teams[1].odds = o2;\n    }\n\n    function getDataOdds() public returns(uint256 t1, uint256 t2) {\n        return (teams[0].odds, teams[1].odds);\n    }\n\n    function setDataScores(uint256 s1, uint256 s2) public {\n        require(msg.sender == owner, \"Error, not admin.\");\n        require(start == 1, \"Error, game not start.\");\n        end = 1;\n        teams[0].score = s1;\n        teams[1].score = s2;\n    }\n\n    function getDataScores() public returns(uint256 a, uint256 b) {\n        return (teams[0].score, teams[1].score);\n    }\n\n    // game start. stop betting\n    function gameStart() public {\n        require(msg.sender == owner, \"Error, not admin.\");\n        require(teams[0].name != \"\", \"Error, TeamName not set\");\n        require(teams[1].name != \"\", \"Error, TeamName not set\");\n        require(teams[0].odds != 0, \"Error, odds not set\");\n        require(teams[1].odds != 0, \"Error, odds not set\");\n        start = 1;\n    }\n\n    function bet(bytes32 team) public payable {\n        //One person can only bet 1 time;\n        require(teams[0].name != \"\", \"Error, TeamName not set\");\n        require(teams[1].name != \"\", \"Error, TeamName not set\");\n        require(team == teams[0].name || team == teams[1].name, \"Error, unrecognized team.\");\n        require(!checkPlayerExist(msg.sender), \"Error, player already bet\");\n        require(msg.value >= minBet, \"Error, bet too less\");\n        require(start == 0, \"Error, game started.\");\n\n        playerInfo[msg.sender].bet = msg.value;\n        playerInfo[msg.sender].betTeam = team;\n\n        players.push(msg.sender);\n\n        // 奖池比例分钱玩法\n        // if (team == 1)\n        //     betsT1 += msg.value;\n        // else\n        //     betsT2 += msg.value;\n    }\n    \n\n    // 输赢盘赔率玩法\n    function getResult() public payable {\n        require(msg.sender == owner, \"Error, not admin.\");\n        require(end == 1, \"Error, game not end.\");\n\n        address payable winner;\n        Team memory winTeam;\n        Team memory loseTeam;\n        uint256 winBet;\n\n        if (teams[0].score > teams[1].score) {\n            winTeam = teams[0];\n            loseTeam = teams[1];\n        }\n        else {\n            winTeam = teams[1];\n            loseTeam = teams[0];\n        }\n\n        for (uint256 i; i < players.length ; i++) {\n            winner = players[i];\n            if (playerInfo[winner].betTeam == loseTeam.name) continue;\n            winBet = playerInfo[winner].bet * winTeam.odds / 1000;\n            delete playerInfo[winner];\n            winner.transfer(winBet);\n        }\n\n        // clean all data\n        delete players;\n        delete winTeam;\n        delete loseTeam;\n\n        betsT1 = 0;\n        betsT2 = 0; \n        winBet = 0;\n        start = 0;\n        end = 0;\n    }\n\n    // 庄家取余额\n    function payBalance(address payable addr, uint256 amount) public payable {\n        require(msg.sender == owner, \"Error, not admin.\");\n        addr.transfer(amount);\n    }\n}",
  "sourcePath": "/home/his/NISL/class/Blockchain/lab2/nbagame/contracts/NBAGame.sol",
  "compiler": {
    "name": "solc",
    "version": "0.5.0+commit.1d4f565a.Emscripten.clang"
  },
  "schemaVersion": "2.0.2",
  "updatedAt": "2018-12-25T15:45:27.805Z"
}